{
  "contractName": "BCTrustV2",
  "abi": [
    {
      "constant": true,
      "inputs": [
        {
          "name": "",
          "type": "address"
        }
      ],
      "name": "ids",
      "outputs": [
        {
          "name": "",
          "type": "bytes"
        }
      ],
      "payable": false,
      "stateMutability": "view",
      "type": "function"
    },
    {
      "constant": true,
      "inputs": [
        {
          "name": "",
          "type": "uint8"
        }
      ],
      "name": "boxes",
      "outputs": [
        {
          "name": "",
          "type": "string"
        }
      ],
      "payable": false,
      "stateMutability": "view",
      "type": "function"
    },
    {
      "constant": true,
      "inputs": [
        {
          "name": "",
          "type": "uint8"
        }
      ],
      "name": "grpIdMasters",
      "outputs": [
        {
          "name": "",
          "type": "address"
        }
      ],
      "payable": false,
      "stateMutability": "view",
      "type": "function"
    },
    {
      "constant": true,
      "inputs": [
        {
          "name": "",
          "type": "uint8"
        }
      ],
      "name": "BCTrustMember",
      "outputs": [
        {
          "name": "",
          "type": "address"
        }
      ],
      "payable": false,
      "stateMutability": "view",
      "type": "function"
    },
    {
      "inputs": [],
      "payable": false,
      "stateMutability": "nonpayable",
      "type": "constructor"
    },
    {
      "constant": false,
      "inputs": [
        {
          "name": "_category",
          "type": "uint8"
        },
        {
          "name": "_grpId",
          "type": "uint8"
        },
        {
          "name": "_id",
          "type": "uint8"
        },
        {
          "name": "_r",
          "type": "uint256"
        },
        {
          "name": "_s",
          "type": "uint256"
        }
      ],
      "name": "BCTrustV2_AddNode",
      "outputs": [],
      "payable": false,
      "stateMutability": "nonpayable",
      "type": "function"
    },
    {
      "constant": false,
      "inputs": [
        {
          "name": "inputData",
          "type": "bytes"
        },
        {
          "name": "_r",
          "type": "bytes32"
        },
        {
          "name": "_s",
          "type": "bytes32"
        },
        {
          "name": "masterAddr",
          "type": "address"
        }
      ],
      "name": "BCTrustV2_Verify",
      "outputs": [
        {
          "name": "",
          "type": "bool"
        }
      ],
      "payable": false,
      "stateMutability": "nonpayable",
      "type": "function"
    },
    {
      "constant": true,
      "inputs": [
        {
          "name": "a",
          "type": "address"
        }
      ],
      "name": "BCTrustV2_FromAddressToBytes",
      "outputs": [
        {
          "name": "b",
          "type": "bytes"
        }
      ],
      "payable": false,
      "stateMutability": "view",
      "type": "function"
    },
    {
      "constant": false,
      "inputs": [
        {
          "name": "src",
          "type": "bytes"
        }
      ],
      "name": "BCTrustV2_FromBytesToBytes32",
      "outputs": [
        {
          "name": "res",
          "type": "bytes32"
        }
      ],
      "payable": false,
      "stateMutability": "nonpayable",
      "type": "function"
    },
    {
      "constant": false,
      "inputs": [
        {
          "name": "sender",
          "type": "uint8"
        },
        {
          "name": "receiver",
          "type": "uint8"
        },
        {
          "name": "msg",
          "type": "string"
        }
      ],
      "name": "BCTrustV2_Send",
      "outputs": [],
      "payable": false,
      "stateMutability": "nonpayable",
      "type": "function"
    },
    {
      "constant": false,
      "inputs": [
        {
          "name": "addr",
          "type": "uint8"
        }
      ],
      "name": "BCTrustV2_ReadMSG",
      "outputs": [
        {
          "name": "",
          "type": "string"
        }
      ],
      "payable": false,
      "stateMutability": "nonpayable",
      "type": "function"
    },
    {
      "constant": false,
      "inputs": [],
      "name": "test",
      "outputs": [
        {
          "name": "",
          "type": "uint8"
        }
      ],
      "payable": false,
      "stateMutability": "nonpayable",
      "type": "function"
    }
  ],
  "bytecode": "0x608060405234801561001057600080fd5b506115ec806100206000396000f3fe608060405234801561001057600080fd5b50600436106100a95760003560e01c8063a0d7ac5211610071578063a0d7ac5214610418578063a54ee5a514610489578063b90954c814610533578063f0bed380146105a4578063f8a8fd6d14610661578063fb2a263814610685576100a9565b8063116d00b1146100ae5780631847c06b1461018357806389afda781461024057806390a3e05e1461030f57806392f7338a146103b9575b600080fd5b610181600480360360608110156100c457600080fd5b81019080803560ff169060200190929190803560ff169060200190929190803590602001906401000000008111156100fb57600080fd5b82018360208201111561010d57600080fd5b8035906020019184600183028401116401000000008311171561012f57600080fd5b91908080601f016020809104026020016040519081016040528093929190818152602001838380828437600081840152601f19601f82011690508083019250505050505050919291929050505061078c565b005b6101c56004803603602081101561019957600080fd5b81019080803573ffffffffffffffffffffffffffffffffffffffff169060200190929190505050610a43565b6040518080602001828103825283818151815260200191508051906020019080838360005b838110156102055780820151818401526020810190506101ea565b50505050905090810190601f1680156102325780820380516001836020036101000a031916815260200191505b509250505060405180910390f35b6102f96004803603602081101561025657600080fd5b810190808035906020019064010000000081111561027357600080fd5b82018360208201111561028557600080fd5b803590602001918460018302840111640100000000831117156102a757600080fd5b91908080601f016020809104026020016040519081016040528093929190818152602001838380828437600081840152601f19601f820116905080830192505050505050509192919290505050610af3565b6040518082815260200191505060405180910390f35b61033e6004803603602081101561032557600080fd5b81019080803560ff169060200190929190505050610b01565b6040518080602001828103825283818151815260200191508051906020019080838360005b8381101561037e578082015181840152602081019050610363565b50505050905090810190601f1680156103ab5780820380516001836020036101000a031916815260200191505b509250505060405180910390f35b610416600480360360a08110156103cf57600080fd5b81019080803560ff169060200190929190803560ff169060200190929190803560ff1690602001909291908035906020019092919080359060200190929190505050610bb1565b005b6104476004803603602081101561042e57600080fd5b81019080803560ff169060200190929190505050610e34565b604051808273ffffffffffffffffffffffffffffffffffffffff1673ffffffffffffffffffffffffffffffffffffffff16815260200191505060405180910390f35b6104b86004803603602081101561049f57600080fd5b81019080803560ff169060200190929190505050610e67565b6040518080602001828103825283818151815260200191508051906020019080838360005b838110156104f85780820151818401526020810190506104dd565b50505050905090810190601f1680156105255780820380516001836020036101000a031916815260200191505b509250505060405180910390f35b6105626004803603602081101561054957600080fd5b81019080803560ff169060200190929190505050610f95565b604051808273ffffffffffffffffffffffffffffffffffffffff1673ffffffffffffffffffffffffffffffffffffffff16815260200191505060405180910390f35b6105e6600480360360208110156105ba57600080fd5b81019080803573ffffffffffffffffffffffffffffffffffffffff169060200190929190505050610fc8565b6040518080602001828103825283818151815260200191508051906020019080838360005b8381101561062657808201518184015260208101905061060b565b50505050905090810190601f1680156106535780820380516001836020036101000a031916815260200191505b509250505060405180910390f35b610669610ffa565b604051808260ff1660ff16815260200191505060405180910390f35b6107726004803603608081101561069b57600080fd5b81019080803590602001906401000000008111156106b857600080fd5b8201836020820111156106ca57600080fd5b803590602001918460018302840111640100000000831117156106ec57600080fd5b91908080601f016020809104026020016040519081016040528093929190818152602001838380828437600081840152601f19601f8201169050808301925050505050505091929192908035906020019092919080359060200190929190803573ffffffffffffffffffffffffffffffffffffffff1690602001909291905050506110a4565b604051808215151515815260200191505060405180910390f35b82826000600260008460ff1660ff16815260200190815260200160002060009054906101000a900473ffffffffffffffffffffffffffffffffffffffff1690506000600260008460ff1660ff16815260200190815260200160002060009054906101000a900473ffffffffffffffffffffffffffffffffffffffff169050600073ffffffffffffffffffffffffffffffffffffffff168273ffffffffffffffffffffffffffffffffffffffff16141561084457600080fd5b600073ffffffffffffffffffffffffffffffffffffffff168173ffffffffffffffffffffffffffffffffffffffff16141561087e57600080fd5b6000808273ffffffffffffffffffffffffffffffffffffffff1673ffffffffffffffffffffffffffffffffffffffff16815260200190815260200160002060008154600181600116156101000203166002900481106108d957fe5b8154600116156108f85790600052602060002090602091828204019190065b9054901a7f0100000000000000000000000000000000000000000000000000000000000000027effffffffffffffffffffffffffffffffffffffffffffffffffffffffffffff19166000808473ffffffffffffffffffffffffffffffffffffffff1673ffffffffffffffffffffffffffffffffffffffff168152602001908152602001600020600081546001816001161561010002031660029004811061099b57fe5b8154600116156109ba5790600052602060002090602091828204019190065b9054901a7f0100000000000000000000000000000000000000000000000000000000000000027effffffffffffffffffffffffffffffffffffffffffffffffffffffffffffff191614610a0c57600080fd5b84600360008860ff1660ff1681526020019081526020016000209080519060200190610a3992919061149b565b5050505050505050565b60006020528060005260406000206000915090508054600181600116156101000203166002900480601f016020809104026020016040519081016040528092919081815260200182805460018160011615610100020316600290048015610aeb5780601f10610ac057610100808354040283529160200191610aeb565b820191906000526020600020905b815481529060010190602001808311610ace57829003601f168201915b505050505081565b600060208201519050919050565b60036020528060005260406000206000915090508054600181600116156101000203166002900480601f016020809104026020016040519081016040528092919081815260200182805460018160011615610100020316600290048015610ba95780601f10610b7e57610100808354040283529160200191610ba9565b820191906000526020600020905b815481529060010190602001808311610b8c57829003601f168201915b505050505081565b60008060003373ffffffffffffffffffffffffffffffffffffffff1673ffffffffffffffffffffffffffffffffffffffff16815260200190815260200160002080546001816001161561010002031660029004905014610c1057600080fd5b600073ffffffffffffffffffffffffffffffffffffffff16600260008560ff1660ff16815260200190815260200160002060009054906101000a900473ffffffffffffffffffffffffffffffffffffffff1673ffffffffffffffffffffffffffffffffffffffff1614610c8257600080fd5b60008560ff161415610d5d57600073ffffffffffffffffffffffffffffffffffffffff16600160008660ff1660ff16815260200190815260200160002060009054906101000a900473ffffffffffffffffffffffffffffffffffffffff1673ffffffffffffffffffffffffffffffffffffffff1614610d0057600080fd5b33600160008660ff1660ff16815260200190815260200160002060006101000a81548173ffffffffffffffffffffffffffffffffffffffff021916908373ffffffffffffffffffffffffffffffffffffffff160217905550610dca565b6060610d6a85853361120a565b905060001515610dbb828560001b8560001b600160008b60ff1660ff16815260200190815260200160002060009054906101000a900473ffffffffffffffffffffffffffffffffffffffff166110a4565b15151415610dc857600080fd5b505b33600260008560ff1660ff16815260200190815260200160002060006101000a81548173ffffffffffffffffffffffffffffffffffffffff021916908373ffffffffffffffffffffffffffffffffffffffff160217905550610e2d338585611366565b5050505050565b60016020528060005260406000206000915054906101000a900473ffffffffffffffffffffffffffffffffffffffff1681565b6060813373ffffffffffffffffffffffffffffffffffffffff16600260008360ff1660ff16815260200190815260200160002060009054906101000a900473ffffffffffffffffffffffffffffffffffffffff1673ffffffffffffffffffffffffffffffffffffffff1614610edb57600080fd5b600360008460ff1660ff1681526020019081526020016000208054600181600116156101000203166002900480601f016020809104026020016040519081016040528092919081815260200182805460018160011615610100020316600290048015610f885780601f10610f5d57610100808354040283529160200191610f88565b820191906000526020600020905b815481529060010190602001808311610f6b57829003601f168201915b5050505050915050919050565b60026020528060005260406000206000915054906101000a900473ffffffffffffffffffffffffffffffffffffffff1681565b606060405182741400000000000000000000000000000000000000001860148201526034810160405280915050919050565b60008060003373ffffffffffffffffffffffffffffffffffffffff1673ffffffffffffffffffffffffffffffffffffffff168152602001908152602001600020600081546001816001161561010002031660029004811061105757fe5b8154600116156110765790600052602060002090602091828204019190065b9054901a7f01000000000000000000000000000000000000000000000000000000000000000260f81c905090565b600080858051906020012090506000601b90508373ffffffffffffffffffffffffffffffffffffffff1660018383898960405160008152602001604052604051808581526020018460ff1660ff1681526020018381526020018281526020019450505050506020604051602081039080840390855afa15801561112b573d6000803e3d6000fd5b5050506020604051035173ffffffffffffffffffffffffffffffffffffffff1614806111eb57508373ffffffffffffffffffffffffffffffffffffffff1660018360018401898960405160008152602001604052604051808581526020018460ff1660ff1681526020018381526020018281526020019450505050506020604051602081039080840390855afa1580156111c9573d6000803e3d6000fd5b5050506020604051035173ffffffffffffffffffffffffffffffffffffffff16145b156111fb57600192505050611202565b6000925050505b949350505050565b60608061121683610fc8565b9050606060166040519080825280601f01601f19166020018201604052801561124e5781602001600182028038833980820191505090505b50905060008090508660f81b82828060010193508151811061126c57fe5b60200101907effffffffffffffffffffffffffffffffffffffffffffffffffffffffffffff1916908160001a9053508560f81b8282806001019350815181106112b157fe5b60200101907effffffffffffffffffffffffffffffffffffffffffffffffffffffffffffff1916908160001a9053506000809050600090505b6014811015611358578381815181106112ff57fe5b602001015160f81c60f81b83838060010194508151811061131c57fe5b60200101907effffffffffffffffffffffffffffffffffffffffffffffffffffffffffffff1916908160001a90535080806001019150506112ea565b829450505050509392505050565b61137082826113c7565b6000808573ffffffffffffffffffffffffffffffffffffffff1673ffffffffffffffffffffffffffffffffffffffff16815260200190815260200160002090805190602001906113c192919061151b565b50505050565b60608060026040519080825280601f01601f1916602001820160405280156113fe5781602001600182028038833980820191505090505b50905060008090508460f81b82828060010193508151811061141c57fe5b60200101907effffffffffffffffffffffffffffffffffffffffffffffffffffffffffffff1916908160001a9053508360f81b82828060010193508151811061146157fe5b60200101907effffffffffffffffffffffffffffffffffffffffffffffffffffffffffffff1916908160001a905350819250505092915050565b828054600181600116156101000203166002900490600052602060002090601f016020900481019282601f106114dc57805160ff191683800117855561150a565b8280016001018555821561150a579182015b828111156115095782518255916020019190600101906114ee565b5b509050611517919061159b565b5090565b828054600181600116156101000203166002900490600052602060002090601f016020900481019282601f1061155c57805160ff191683800117855561158a565b8280016001018555821561158a579182015b8281111561158957825182559160200191906001019061156e565b5b509050611597919061159b565b5090565b6115bd91905b808211156115b95760008160009055506001016115a1565b5090565b9056fea165627a7a7230582023352e3735f3dc7421879f4ebc5e419ac7df3729baa1494a7ae13130cfbe236a0029",
  "source": "pragma solidity ^0.5.8;\ncontract BCTrustV2 {\n\n\n\tmapping (address => bytes) public ids ;\n\n\tmapping (uint8 => address) public grpIdMasters; \n\tmapping (uint8 => address) public BCTrustMember ;\n\n\n\n\tmapping (uint8 => string) public boxes ;\n\n\n  \tconstructor() public {\n   \t}\n\tmodifier ControlOf(uint8 sender, uint8 receiver) {\n\t\taddress addrSender   = BCTrustMember[sender  ] ;\n\t\taddress addrReceiver = BCTrustMember[receiver] ;\n\n\t\tif (addrSender == address(0))          \n\t        \trevert() ;\n\t\n\t\tif (addrReceiver == address(0))          \n\t        \trevert() ;\n\t\t\n\n\t\tif (ids[addrSender][0] != ids[addrReceiver][0])          \n\t        \trevert() ;\n\t    \t_ ;\n\t\n\t}\n\n\tmodifier OnlyConcernedObject (uint8 addr) {\n\t\tif (BCTrustMember[addr] != msg.sender )          \n\t        \trevert() ;\n\t    \t_ ;\n\t}\n\n\tfunction BCTrustV2_AddNode (uint8 _category, uint8 _grpId, uint8 _id, uint256 _r, uint256 _s) public\n\t{\n\t\tif (bytes(ids[msg.sender]).length != 0)\n\t\t\trevert() ;\n\n\t\tif (address(BCTrustMember [_id]) != address(0))\n\t\t\trevert() ;\n\n\t\tif (_category == 0) {\n\t\t\tif (address(grpIdMasters[_grpId]) != address(0))\n\t\t        \trevert() ;\n\t\t    \telse {\n\t\t        \tgrpIdMasters  [_grpId] = msg.sender ;\n\t\t    \t}\n\t\t} else {\n\t\t\tbytes memory inputData = BCTrustV2_BytesConcat(_grpId, _id, msg.sender) ;\n\t\t    \tif (BCTrustV2_Verify (inputData, bytes32(_r), bytes32(_s), grpIdMasters[_grpId]) == false) {\n\t\t\t\trevert() ;\n\t\t\t}\t\n\t\t}\n\t\t\t\n\t\tBCTrustMember [_id] = msg.sender;\n\t\tBCTrustV2_SaveNode(msg.sender, _grpId, _id);\n\n\t}\n\t\n\tfunction BCTrustV2_SaveNode(address _addr, uint8 _grpId, uint8 _id) private {\n\t\t\n\t\tids[_addr] = BCTrustV2_Concat2Bytes(_grpId, _id) ;\n\n\t}\n\n\tfunction BCTrustV2_Concat2Bytes (uint8 v1, uint8 v2) private returns (bytes memory) {\n\t\tbytes memory res = new bytes(2) ;\n\t\tuint i = 0 ;\n\t\t\n\t\tres[i++] = byte(v1) ;\n\t\tres[i++] = byte(v2) ;\n\n\t\treturn res ;\n\t}\n\n\n\tfunction BCTrustV2_Verify (bytes memory inputData, bytes32 _r, bytes32 _s, address masterAddr) public returns (bool)\n    \t{\n\n        \tbytes32 hash = keccak256(inputData) ;\n        \tuint8   v    = 27 ;\n\n        \n        \tif ((ecrecover(hash, v, _r, _s) == masterAddr) || (ecrecover(hash, v+1, _r, _s) == masterAddr)) \n            \t\treturn true ;\n        \telse\n            \t\treturn false ;\n\t}\n\n\t\n\tfunction BCTrustV2_BytesConcat(uint8 v1, uint8 v2, address addr) internal returns (bytes memory)\n\t{\n\t    \tbytes memory baddr = BCTrustV2_FromAddressToBytes(addr) ;\n\t\tbytes memory res   = new bytes (1 + 1 + 20) ;\n        \n\t\tuint i = 0 ;\n\t\tres[i++] = byte(v1) ;\n\t\tres[i++] = byte(v2) ;\n\t\tuint j = 0 ;\n\t\tfor (j = 0; j < 20; j++)\n\t\t\tres[i++] = baddr[j] ;\n\t\n\t\treturn res ;\n\t}\n\n\n\n\tfunction BCTrustV2_FromAddressToBytes(address a) view public returns (bytes memory b) {\n        \tassembly {\n            \t\tlet m := mload(0x40)\n\t\t\tmstore(add(m, 20), xor(0x140000000000000000000000000000000000000000, a))\n\t\t\tmstore(0x40, add(m, 52))\n\t\t\tb := m\n         \t}\n    \t}\n    \n    \n    \tfunction BCTrustV2_FromBytesToBytes32(bytes memory src) public returns (bytes32 res) {\n        \tassembly {\n            \t\tres := mload(add(src, 32))\n        \t}\n    \t}\n\n\n\tfunction BCTrustV2_Send (uint8 sender, uint8 receiver, string memory msg) ControlOf(sender, receiver) public \n\t{\n\t\tboxes[receiver] = msg ;\n        }\n\n\n\tfunction BCTrustV2_ReadMSG (uint8 addr) OnlyConcernedObject(addr) public returns (string memory) \n\t{\n\t\treturn boxes[addr] ;\n   \t}\n\n\n\n\tfunction test() public returns (uint8) \n\t{\n\t\treturn uint8(ids[msg.sender][0]) ;\n\t}\n}\n",
  "sourcePath": "/home/himanshi_sharma/BOT/contracts/BOT.sol",
  "compiler": {
    "name": "solc",
    "version": "0.5.8+commit.23d335f2.Emscripten.clang"
  },
  "schemaVersion": "3.0.11",
  "updatedAt": "2019-08-03T07:21:50.840Z",
  "devdoc": {
    "methods": {}
  },
  "userdoc": {
    "methods": {}
  }
}