{
  "contractName": "Election",
  "abi": [
    {
      "constant": true,
      "inputs": [
        {
          "name": "",
          "type": "uint256"
        }
      ],
      "name": "transatctions",
      "outputs": [
        {
          "name": "obj",
          "type": "string"
        },
        {
          "name": "sender",
          "type": "string"
        },
        {
          "name": "reciever",
          "type": "string"
        },
        {
          "name": "failed",
          "type": "string"
        },
        {
          "name": "masterFlag",
          "type": "int256"
        },
        {
          "name": "followerFlag",
          "type": "int256"
        }
      ],
      "payable": false,
      "stateMutability": "view",
      "type": "function"
    },
    {
      "constant": true,
      "inputs": [
        {
          "name": "",
          "type": "address"
        }
      ],
      "name": "tickets",
      "outputs": [
        {
          "name": "gId",
          "type": "uint256"
        },
        {
          "name": "objId",
          "type": "uint256"
        },
        {
          "name": "publicKey",
          "type": "string"
        }
      ],
      "payable": false,
      "stateMutability": "view",
      "type": "function"
    }
  ],
  "bytecode": "0x608060405234801561001057600080fd5b50610689806100206000396000f3fe608060405234801561001057600080fd5b50600436106100365760003560e01c80636cd6549b1461003b5780636dcbf2a314610234575b600080fd5b6100676004803603602081101561005157600080fd5b81019080803590602001909291905050506102ff565b604051808060200180602001806020018060200187815260200186815260200185810385528b818151815260200191508051906020019080838360005b838110156100bf5780820151818401526020810190506100a4565b50505050905090810190601f1680156100ec5780820380516001836020036101000a031916815260200191505b5085810384528a818151815260200191508051906020019080838360005b8381101561012557808201518184015260208101905061010a565b50505050905090810190601f1680156101525780820380516001836020036101000a031916815260200191505b50858103835289818151815260200191508051906020019080838360005b8381101561018b578082015181840152602081019050610170565b50505050905090810190601f1680156101b85780820380516001836020036101000a031916815260200191505b50858103825288818151815260200191508051906020019080838360005b838110156101f15780820151818401526020810190506101d6565b50505050905090810190601f16801561021e5780820380516001836020036101000a031916815260200191505b509a505050505050505050505060405180910390f35b6102766004803603602081101561024a57600080fd5b81019080803573ffffffffffffffffffffffffffffffffffffffff16906020019092919050505061059b565b6040518084815260200183815260200180602001828103825283818151815260200191508051906020019080838360005b838110156102c25780820151818401526020810190506102a7565b50505050905090810190601f1680156102ef5780820380516001836020036101000a031916815260200191505b5094505050505060405180910390f35b6002602052806000526040600020600091509050806000018054600181600116156101000203166002900480601f0160208091040260200160405190810160405280929190818152602001828054600181600116156101000203166002900480156103ab5780601f10610380576101008083540402835291602001916103ab565b820191906000526020600020905b81548152906001019060200180831161038e57829003601f168201915b505050505090806001018054600181600116156101000203166002900480601f0160208091040260200160405190810160405280929190818152602001828054600181600116156101000203166002900480156104495780601f1061041e57610100808354040283529160200191610449565b820191906000526020600020905b81548152906001019060200180831161042c57829003601f168201915b505050505090806002018054600181600116156101000203166002900480601f0160208091040260200160405190810160405280929190818152602001828054600181600116156101000203166002900480156104e75780601f106104bc576101008083540402835291602001916104e7565b820191906000526020600020905b8154815290600101906020018083116104ca57829003601f168201915b505050505090806003018054600181600116156101000203166002900480601f0160208091040260200160405190810160405280929190818152602001828054600181600116156101000203166002900480156105855780601f1061055a57610100808354040283529160200191610585565b820191906000526020600020905b81548152906001019060200180831161056857829003601f168201915b5050505050908060040154908060050154905086565b6003602052806000526040600020600091509050806000015490806001015490806002018054600181600116156101000203166002900480601f0160208091040260200160405190810160405280929190818152602001828054600181600116156101000203166002900480156106535780601f1061062857610100808354040283529160200191610653565b820191906000526020600020905b81548152906001019060200180831161063657829003601f168201915b505050505090508356fea165627a7a7230582036fab8191304ff0f52a207fb25f040c0551a0229771e2bc5146d29ba660185850029",
  "source": "pragma solidity ^0.5.8;\n\ncontract Election {\n\n    uint gId;\n    uint objId;\n\n    struct Ticket {\n        uint gId;\n        uint objId;\n        string publicKey;\n    }\n\n    struct Transaction {\n        string obj;\n        string sender;\n        string reciever;\n        string failed;\n        int masterFlag;\n        int followerFlag;\n    }\n    mapping(uint => Transaction) public transatctions;\n\n    mapping(address => Ticket) public tickets;\n\n    // //Function to check if objectIdExists.\n    //algo 1\n    //  function objIdExists(uint _objId) public returns(bool)   {\n    //      return require(_objId, false);\n    //  }\n\n    //  function grpIdExists(string memory _gId) public returns (bool) {\n    //      return require(_gId, false);\n    //  }\n\n\n\n\n    //algo2\n\n\n    //algo3\n}\n",
  "sourcePath": "/home/himanshi_sharma/BOT/contracts/Rules.sol",
  "compiler": {
    "name": "solc",
    "version": "0.5.8+commit.23d335f2.Emscripten.clang"
  },
  "schemaVersion": "3.0.11",
  "updatedAt": "2019-08-03T07:21:50.852Z",
  "devdoc": {
    "methods": {}
  },
  "userdoc": {
    "methods": {}
  }
}