{
  "contractName": "Election",
  "abi": [
    {
      "constant": true,
      "inputs": [
        {
          "name": "",
          "type": "address"
        }
      ],
      "name": "ids",
      "outputs": [
        {
          "name": "",
          "type": "bytes"
        }
      ],
      "payable": false,
      "stateMutability": "view",
      "type": "function"
    },
    {
      "constant": true,
      "inputs": [
        {
          "name": "",
          "type": "uint8"
        }
      ],
      "name": "boxes",
      "outputs": [
        {
          "name": "",
          "type": "string"
        }
      ],
      "payable": false,
      "stateMutability": "view",
      "type": "function"
    },
    {
      "constant": true,
      "inputs": [
        {
          "name": "",
          "type": "uint8"
        }
      ],
      "name": "grpIdMasters",
      "outputs": [
        {
          "name": "",
          "type": "address"
        }
      ],
      "payable": false,
      "stateMutability": "view",
      "type": "function"
    },
    {
      "constant": true,
      "inputs": [
        {
          "name": "",
          "type": "uint8"
        }
      ],
      "name": "BCTrustMember",
      "outputs": [
        {
          "name": "",
          "type": "address"
        }
      ],
      "payable": false,
      "stateMutability": "view",
      "type": "function"
    },
    {
      "constant": false,
      "inputs": [],
      "name": "BCTrustV2",
      "outputs": [],
      "payable": false,
      "stateMutability": "nonpayable",
      "type": "function"
    },
    {
      "constant": false,
      "inputs": [
        {
          "name": "_gid",
          "type": "uint8"
        }
      ],
      "name": "hasNoGroupId",
      "outputs": [
        {
          "name": "",
          "type": "bool"
        }
      ],
      "payable": false,
      "stateMutability": "nonpayable",
      "type": "function"
    },
    {
      "constant": false,
      "inputs": [
        {
          "name": "_category",
          "type": "uint8"
        },
        {
          "name": "_grpId",
          "type": "uint8"
        },
        {
          "name": "_id",
          "type": "uint8"
        },
        {
          "name": "_r",
          "type": "uint256"
        },
        {
          "name": "_s",
          "type": "uint256"
        }
      ],
      "name": "BCTrustV2_AddNode",
      "outputs": [],
      "payable": false,
      "stateMutability": "nonpayable",
      "type": "function"
    },
    {
      "constant": false,
      "inputs": [
        {
          "name": "_addr",
          "type": "address"
        },
        {
          "name": "_grpId",
          "type": "uint8"
        },
        {
          "name": "_id",
          "type": "uint8"
        }
      ],
      "name": "BCTrustV2_SaveNode",
      "outputs": [],
      "payable": false,
      "stateMutability": "nonpayable",
      "type": "function"
    },
    {
      "constant": false,
      "inputs": [
        {
          "name": "v1",
          "type": "uint8"
        },
        {
          "name": "v2",
          "type": "uint8"
        }
      ],
      "name": "BCTrustV2_Concat2Bytes",
      "outputs": [
        {
          "name": "",
          "type": "bytes"
        }
      ],
      "payable": false,
      "stateMutability": "nonpayable",
      "type": "function"
    },
    {
      "constant": false,
      "inputs": [
        {
          "name": "inputData",
          "type": "bytes"
        },
        {
          "name": "_r",
          "type": "bytes32"
        },
        {
          "name": "_s",
          "type": "bytes32"
        },
        {
          "name": "masterAddr",
          "type": "address"
        }
      ],
      "name": "BCTrustV2_Verify",
      "outputs": [
        {
          "name": "",
          "type": "bool"
        }
      ],
      "payable": false,
      "stateMutability": "nonpayable",
      "type": "function"
    },
    {
      "constant": true,
      "inputs": [
        {
          "name": "a",
          "type": "address"
        }
      ],
      "name": "BCTrustV2_FromAddressToBytes",
      "outputs": [
        {
          "name": "b",
          "type": "bytes"
        }
      ],
      "payable": false,
      "stateMutability": "view",
      "type": "function"
    },
    {
      "constant": false,
      "inputs": [
        {
          "name": "src",
          "type": "bytes"
        }
      ],
      "name": "BCTrustV2_FromBytesToBytes32",
      "outputs": [
        {
          "name": "res",
          "type": "bytes32"
        }
      ],
      "payable": false,
      "stateMutability": "nonpayable",
      "type": "function"
    },
    {
      "constant": false,
      "inputs": [
        {
          "name": "sender",
          "type": "uint8"
        },
        {
          "name": "receiver",
          "type": "uint8"
        },
        {
          "name": "msg",
          "type": "string"
        }
      ],
      "name": "BCTrustV2_Send",
      "outputs": [],
      "payable": false,
      "stateMutability": "nonpayable",
      "type": "function"
    },
    {
      "constant": false,
      "inputs": [
        {
          "name": "addr",
          "type": "uint8"
        }
      ],
      "name": "BCTrustV2_ReadMSG",
      "outputs": [
        {
          "name": "",
          "type": "string"
        }
      ],
      "payable": false,
      "stateMutability": "nonpayable",
      "type": "function"
    },
    {
      "constant": false,
      "inputs": [],
      "name": "test",
      "outputs": [
        {
          "name": "",
          "type": "uint8"
        }
      ],
      "payable": false,
      "stateMutability": "nonpayable",
      "type": "function"
    }
  ],
  "bytecode": "0x608060405234801561001057600080fd5b5061181f806100206000396000f3fe608060405234801561001057600080fd5b50600436106100f55760003560e01c8063a54ee5a511610097578063f0bed38011610066578063f0bed380146106fa578063f0d708b9146107b7578063f8a8fd6d14610815578063fb2a263814610839576100f5565b8063a54ee5a5146104df578063b90954c814610589578063d20073e4146105fa578063d5290d8e14610643576100f5565b806389afda78116100d357806389afda781461029657806390a3e05e1461036557806392f7338a1461040f578063a0d7ac521461046e576100f5565b8063116d00b1146100fa578063138a154b146101cf5780631847c06b146101d9575b600080fd5b6101cd6004803603606081101561011057600080fd5b81019080803560ff169060200190929190803560ff1690602001909291908035906020019064010000000081111561014757600080fd5b82018360208201111561015957600080fd5b8035906020019184600183028401116401000000008311171561017b57600080fd5b91908080601f016020809104026020016040519081016040528093929190818152602001838380828437600081840152601f19601f820116905080830192505050505050509192919290505050610940565b005b6101d7610bf7565b005b61021b600480360360208110156101ef57600080fd5b81019080803573ffffffffffffffffffffffffffffffffffffffff169060200190929190505050610bf9565b6040518080602001828103825283818151815260200191508051906020019080838360005b8381101561025b578082015181840152602081019050610240565b50505050905090810190601f1680156102885780820380516001836020036101000a031916815260200191505b509250505060405180910390f35b61034f600480360360208110156102ac57600080fd5b81019080803590602001906401000000008111156102c957600080fd5b8201836020820111156102db57600080fd5b803590602001918460018302840111640100000000831117156102fd57600080fd5b91908080601f016020809104026020016040519081016040528093929190818152602001838380828437600081840152601f19601f820116905080830192505050505050509192919290505050610ca9565b6040518082815260200191505060405180910390f35b6103946004803603602081101561037b57600080fd5b81019080803560ff169060200190929190505050610cb7565b6040518080602001828103825283818151815260200191508051906020019080838360005b838110156103d45780820151818401526020810190506103b9565b50505050905090810190601f1680156104015780820380516001836020036101000a031916815260200191505b509250505060405180910390f35b61046c600480360360a081101561042557600080fd5b81019080803560ff169060200190929190803560ff169060200190929190803560ff1690602001909291908035906020019092919080359060200190929190505050610d67565b005b61049d6004803603602081101561048457600080fd5b81019080803560ff169060200190929190505050610fea565b604051808273ffffffffffffffffffffffffffffffffffffffff1673ffffffffffffffffffffffffffffffffffffffff16815260200191505060405180910390f35b61050e600480360360208110156104f557600080fd5b81019080803560ff16906020019092919050505061101d565b6040518080602001828103825283818151815260200191508051906020019080838360005b8381101561054e578082015181840152602081019050610533565b50505050905090810190601f16801561057b5780820380516001836020036101000a031916815260200191505b509250505060405180910390f35b6105b86004803603602081101561059f57600080fd5b81019080803560ff16906020019092919050505061114b565b604051808273ffffffffffffffffffffffffffffffffffffffff1673ffffffffffffffffffffffffffffffffffffffff16815260200191505060405180910390f35b6106296004803603602081101561061057600080fd5b81019080803560ff16906020019092919050505061117e565b604051808215151515815260200191505060405180910390f35b61067f6004803603604081101561065957600080fd5b81019080803560ff169060200190929190803560ff1690602001909291905050506111fb565b6040518080602001828103825283818151815260200191508051906020019080838360005b838110156106bf5780820151818401526020810190506106a4565b50505050905090810190601f1680156106ec5780820380516001836020036101000a031916815260200191505b509250505060405180910390f35b61073c6004803603602081101561071057600080fd5b81019080803573ffffffffffffffffffffffffffffffffffffffff1690602001909291905050506112cf565b6040518080602001828103825283818151815260200191508051906020019080838360005b8381101561077c578082015181840152602081019050610761565b50505050905090810190601f1680156107a95780820380516001836020036101000a031916815260200191505b509250505060405180910390f35b610813600480360360608110156107cd57600080fd5b81019080803573ffffffffffffffffffffffffffffffffffffffff169060200190929190803560ff169060200190929190803560ff169060200190929190505050611301565b005b61081d611362565b604051808260ff1660ff16815260200191505060405180910390f35b6109266004803603608081101561084f57600080fd5b810190808035906020019064010000000081111561086c57600080fd5b82018360208201111561087e57600080fd5b803590602001918460018302840111640100000000831117156108a057600080fd5b91908080601f016020809104026020016040519081016040528093929190818152602001838380828437600081840152601f19601f8201169050808301925050505050505091929192908035906020019092919080359060200190929190803573ffffffffffffffffffffffffffffffffffffffff16906020019092919050505061140c565b604051808215151515815260200191505060405180910390f35b82826000600260008460ff1660ff16815260200190815260200160002060009054906101000a900473ffffffffffffffffffffffffffffffffffffffff1690506000600260008460ff1660ff16815260200190815260200160002060009054906101000a900473ffffffffffffffffffffffffffffffffffffffff169050600073ffffffffffffffffffffffffffffffffffffffff168273ffffffffffffffffffffffffffffffffffffffff1614156109f857600080fd5b600073ffffffffffffffffffffffffffffffffffffffff168173ffffffffffffffffffffffffffffffffffffffff161415610a3257600080fd5b6000808273ffffffffffffffffffffffffffffffffffffffff1673ffffffffffffffffffffffffffffffffffffffff1681526020019081526020016000206000815460018160011615610100020316600290048110610a8d57fe5b815460011615610aac5790600052602060002090602091828204019190065b9054901a7f0100000000000000000000000000000000000000000000000000000000000000027effffffffffffffffffffffffffffffffffffffffffffffffffffffffffffff19166000808473ffffffffffffffffffffffffffffffffffffffff1673ffffffffffffffffffffffffffffffffffffffff1681526020019081526020016000206000815460018160011615610100020316600290048110610b4f57fe5b815460011615610b6e5790600052602060002090602091828204019190065b9054901a7f0100000000000000000000000000000000000000000000000000000000000000027effffffffffffffffffffffffffffffffffffffffffffffffffffffffffffff191614610bc057600080fd5b84600360008860ff1660ff1681526020019081526020016000209080519060200190610bed9291906116ce565b5050505050505050565b565b60006020528060005260406000206000915090508054600181600116156101000203166002900480601f016020809104026020016040519081016040528092919081815260200182805460018160011615610100020316600290048015610ca15780601f10610c7657610100808354040283529160200191610ca1565b820191906000526020600020905b815481529060010190602001808311610c8457829003601f168201915b505050505081565b600060208201519050919050565b60036020528060005260406000206000915090508054600181600116156101000203166002900480601f016020809104026020016040519081016040528092919081815260200182805460018160011615610100020316600290048015610d5f5780601f10610d3457610100808354040283529160200191610d5f565b820191906000526020600020905b815481529060010190602001808311610d4257829003601f168201915b505050505081565b60008060003373ffffffffffffffffffffffffffffffffffffffff1673ffffffffffffffffffffffffffffffffffffffff16815260200190815260200160002080546001816001161561010002031660029004905014610dc657600080fd5b600073ffffffffffffffffffffffffffffffffffffffff16600260008560ff1660ff16815260200190815260200160002060009054906101000a900473ffffffffffffffffffffffffffffffffffffffff1673ffffffffffffffffffffffffffffffffffffffff1614610e3857600080fd5b60008560ff161415610f1357600073ffffffffffffffffffffffffffffffffffffffff16600160008660ff1660ff16815260200190815260200160002060009054906101000a900473ffffffffffffffffffffffffffffffffffffffff1673ffffffffffffffffffffffffffffffffffffffff1614610eb657600080fd5b33600160008660ff1660ff16815260200190815260200160002060006101000a81548173ffffffffffffffffffffffffffffffffffffffff021916908373ffffffffffffffffffffffffffffffffffffffff160217905550610f80565b6060610f20858533611572565b905060001515610f71828560001b8560001b600160008b60ff1660ff16815260200190815260200160002060009054906101000a900473ffffffffffffffffffffffffffffffffffffffff1661140c565b15151415610f7e57600080fd5b505b33600260008560ff1660ff16815260200190815260200160002060006101000a81548173ffffffffffffffffffffffffffffffffffffffff021916908373ffffffffffffffffffffffffffffffffffffffff160217905550610fe3338585611301565b5050505050565b60016020528060005260406000206000915054906101000a900473ffffffffffffffffffffffffffffffffffffffff1681565b6060813373ffffffffffffffffffffffffffffffffffffffff16600260008360ff1660ff16815260200190815260200160002060009054906101000a900473ffffffffffffffffffffffffffffffffffffffff1673ffffffffffffffffffffffffffffffffffffffff161461109157600080fd5b600360008460ff1660ff1681526020019081526020016000208054600181600116156101000203166002900480601f01602080910402602001604051908101604052809291908181526020018280546001816001161561010002031660029004801561113e5780601f106111135761010080835404028352916020019161113e565b820191906000526020600020905b81548152906001019060200180831161112157829003601f168201915b5050505050915050919050565b60026020528060005260406000206000915054906101000a900473ffffffffffffffffffffffffffffffffffffffff1681565b60008073ffffffffffffffffffffffffffffffffffffffff16600160008460ff1660ff16815260200190815260200160002060009054906101000a900473ffffffffffffffffffffffffffffffffffffffff1673ffffffffffffffffffffffffffffffffffffffff16146111f557600190506111f6565b5b919050565b60608060026040519080825280601f01601f1916602001820160405280156112325781602001600182028038833980820191505090505b50905060008090508460f81b82828060010193508151811061125057fe5b60200101907effffffffffffffffffffffffffffffffffffffffffffffffffffffffffffff1916908160001a9053508360f81b82828060010193508151811061129557fe5b60200101907effffffffffffffffffffffffffffffffffffffffffffffffffffffffffffff1916908160001a905350819250505092915050565b606060405182741400000000000000000000000000000000000000001860148201526034810160405280915050919050565b61130b82826111fb565b6000808573ffffffffffffffffffffffffffffffffffffffff1673ffffffffffffffffffffffffffffffffffffffff168152602001908152602001600020908051906020019061135c92919061174e565b50505050565b60008060003373ffffffffffffffffffffffffffffffffffffffff1673ffffffffffffffffffffffffffffffffffffffff16815260200190815260200160002060008154600181600116156101000203166002900481106113bf57fe5b8154600116156113de5790600052602060002090602091828204019190065b9054901a7f01000000000000000000000000000000000000000000000000000000000000000260f81c905090565b600080858051906020012090506000601b90508373ffffffffffffffffffffffffffffffffffffffff1660018383898960405160008152602001604052604051808581526020018460ff1660ff1681526020018381526020018281526020019450505050506020604051602081039080840390855afa158015611493573d6000803e3d6000fd5b5050506020604051035173ffffffffffffffffffffffffffffffffffffffff16148061155357508373ffffffffffffffffffffffffffffffffffffffff1660018360018401898960405160008152602001604052604051808581526020018460ff1660ff1681526020018381526020018281526020019450505050506020604051602081039080840390855afa158015611531573d6000803e3d6000fd5b5050506020604051035173ffffffffffffffffffffffffffffffffffffffff16145b156115635760019250505061156a565b6000925050505b949350505050565b60608061157e836112cf565b9050606060166040519080825280601f01601f1916602001820160405280156115b65781602001600182028038833980820191505090505b50905060008090508660f81b8282806001019350815181106115d457fe5b60200101907effffffffffffffffffffffffffffffffffffffffffffffffffffffffffffff1916908160001a9053508560f81b82828060010193508151811061161957fe5b60200101907effffffffffffffffffffffffffffffffffffffffffffffffffffffffffffff1916908160001a9053506000809050600090505b60148110156116c05783818151811061166757fe5b602001015160f81c60f81b83838060010194508151811061168457fe5b60200101907effffffffffffffffffffffffffffffffffffffffffffffffffffffffffffff1916908160001a9053508080600101915050611652565b829450505050509392505050565b828054600181600116156101000203166002900490600052602060002090601f016020900481019282601f1061170f57805160ff191683800117855561173d565b8280016001018555821561173d579182015b8281111561173c578251825591602001919060010190611721565b5b50905061174a91906117ce565b5090565b828054600181600116156101000203166002900490600052602060002090601f016020900481019282601f1061178f57805160ff19168380011785556117bd565b828001600101855582156117bd579182015b828111156117bc5782518255916020019190600101906117a1565b5b5090506117ca91906117ce565b5090565b6117f091905b808211156117ec5760008160009055506001016117d4565b5090565b9056fea165627a7a72305820e1fc053c4d4ba05eea1314874743df83ba7aa000d206a9acf798701a251c04d60029",
  "source": "pragma solidity ^0.5.8;\n\ncontract Election {\nmapping (address => bytes) public ids ;\n\n\tmapping (uint8 => address) public grpIdMasters  ; \n\tmapping (uint8 => address) public BCTrustMember ;\n\tmapping (uint8 => string) public boxes ;\n\n\n  \tfunction BCTrustV2() public {\n\n    \t}\n\t\n    function hasNoGroupId(uint8 _gid) public returns (bool) {\n        if (grpIdMasters[_gid] != address(0)){\n          return true;\n        }\n    }\n\n\tmodifier ControlOf(uint8 sender, uint8 receiver) {\n\t\taddress addrSender   = BCTrustMember[sender  ] ;\n\t\taddress addrReceiver = BCTrustMember[receiver] ;\n\n\t\tif (addrSender == address(0))          \n\t        \trevert() ;\n\t\n\t\tif (addrReceiver == address(0))          \n\t        \trevert() ;\n\t\t\n\n\t\tif (ids[addrSender][0] != ids[addrReceiver][0])          \n\t        \trevert() ;\n\t    \t_ ;\n\t\n\t}\n\n\tmodifier OnlyConcernedObject (uint8 addr) {\n\t\tif (BCTrustMember[addr] != msg.sender )          \n\t        \trevert() ;\n\t    \t_ ;\n\t}\n\n\tfunction BCTrustV2_AddNode (uint8 _category, uint8 _grpId, uint8 _id, uint256 _r, uint256 _s) public {\n\t\tif (bytes(ids[msg.sender]).length != 0)\n\t\t\trevert() ;\n\n\t\tif (BCTrustMember [_id] != address(0))\n\t\t\trevert() ;\n\n\t\tif (_category == 0) {\n\t\t\tif (grpIdMasters[_grpId] != address(0))\n\t\t        \trevert() ;\n\t\t    \telse {\n\t\t        \tgrpIdMasters  [_grpId] = msg.sender ;\n\t\t    \t}\n\t\t} else {\n\t\t\tbytes memory inputData = BCTrustV2_BytesConcat(_grpId, _id, msg.sender) ;\n\t\t    \tif (BCTrustV2_Verify (inputData, bytes32(_r), bytes32(_s), grpIdMasters[_grpId]) == false) {\n\t\t\t\trevert() ;\n\t\t\t}\t\n\t\t}\n\t\t\t\n\t\tBCTrustMember [_id] = msg.sender            ;\n\t\tBCTrustV2_SaveNode(msg.sender, _grpId, _id) ;\n\n\t}\n\t\n\tfunction BCTrustV2_SaveNode(address _addr, uint8 _grpId, uint8 _id) public {\n\t\t\n\t\tids[_addr] = BCTrustV2_Concat2Bytes(_grpId, _id) ;\n\n\t}\n\n\tfunction BCTrustV2_Concat2Bytes (uint8 v1, uint8 v2) public returns (bytes memory) {\n\t\tbytes memory res = new bytes(2) ;\n\t\tuint i = 0 ;\n\t\t\n\t\tres[i++] = byte(v1) ;\n\t\tres[i++] = byte(v2) ;\n\n\t\treturn res ;\n\t}\n\n\n\tfunction BCTrustV2_Verify (bytes memory inputData, bytes32 _r, bytes32 _s, address masterAddr) public returns (bool) {\n\n        \tbytes32 hash = keccak256(inputData) ;\n        \tuint8   v    = 27 ;\n\n        \n        \tif ((ecrecover(hash, v, _r, _s) == masterAddr) || (ecrecover(hash, v+1, _r, _s) == masterAddr)) \n            \t\treturn true ;\n        \telse\n            \t\treturn false ;\n\t}\n\n\t\n\tfunction BCTrustV2_BytesConcat(uint8 v1, uint8 v2, address addr) internal returns (bytes memory) {\n\t    \tbytes memory baddr = BCTrustV2_FromAddressToBytes(addr) ;\n\t\tbytes memory res   = new bytes (1 + 1 + 20) ;\n        \n\t\tuint i = 0 ;\n\t\tres[i++] = byte(v1) ;\n\t\tres[i++] = byte(v2) ;\n\t\tuint j = 0 ;\n\t\tfor (j = 0; j < 20; j++){\n\t\t\tres[i++] = baddr[j] ;\n\t\t}\n\t\treturn res ;\n\t}\n\n\tfunction BCTrustV2_FromAddressToBytes(address a) view public returns (bytes memory b) {\n        \tassembly {\n            \t\tlet m := mload(0x40)\n\t\t\tmstore(add(m, 20), xor(0x140000000000000000000000000000000000000000, a))\n\t\t\tmstore(0x40, add(m, 52))\n\t\t\tb := m\n         \t}\n    \t}\n    \n    \n    \tfunction BCTrustV2_FromBytesToBytes32(bytes memory src) public returns (bytes32 res) {\n        \tassembly {\n            \t\tres := mload(add(src, 32))\n        \t}\n    \t}\n\n\t\n\tfunction BCTrustV2_Send (uint8 sender, uint8 receiver, string memory msg) ControlOf(sender, receiver) public {\n\t\tboxes[receiver] = msg ;\n        }\t\n\n  \n\tfunction BCTrustV2_ReadMSG (uint8 addr) OnlyConcernedObject(addr) public returns (string memory) {\n\t\treturn boxes[addr] ;\n   \t}\n\n\tfunction test() public returns (uint8) {\n\t\treturn uint8(ids[msg.sender][0]) ;\n\t}\n}\n",
  "sourcePath": "/home/himanshi_sharma/Documents/BOT/contracts/Rules.sol",
  "compiler": {
    "name": "solc",
    "version": "0.5.8+commit.23d335f2.Emscripten.clang"
  },
  "schemaVersion": "3.0.11",
  "updatedAt": "2019-08-03T09:52:00.758Z",
  "devdoc": {
    "methods": {}
  },
  "userdoc": {
    "methods": {}
  }
}